{
  "_format": "hh-sol-artifact-1",
  "contractName": "NFTMarket",
  "sourceName": "contracts/NFTMarket.sol",
  "abi": [
    {
      "inputs": [],
      "stateMutability": "nonpayable",
      "type": "constructor"
    },
    {
      "anonymous": false,
      "inputs": [
        {
          "indexed": true,
          "internalType": "uint256",
          "name": "itemId",
          "type": "uint256"
        },
        {
          "indexed": true,
          "internalType": "address",
          "name": "nftContract",
          "type": "address"
        },
        {
          "indexed": true,
          "internalType": "uint256",
          "name": "tokenId",
          "type": "uint256"
        },
        {
          "indexed": false,
          "internalType": "address",
          "name": "seller",
          "type": "address"
        },
        {
          "indexed": false,
          "internalType": "address",
          "name": "owner",
          "type": "address"
        },
        {
          "indexed": false,
          "internalType": "uint256",
          "name": "price",
          "type": "uint256"
        },
        {
          "indexed": false,
          "internalType": "bool",
          "name": "sold",
          "type": "bool"
        }
      ],
      "name": "MarketItemCreated",
      "type": "event"
    },
    {
      "inputs": [
        {
          "internalType": "address",
          "name": "nftContract",
          "type": "address"
        },
        {
          "internalType": "uint256",
          "name": "tokenId",
          "type": "uint256"
        },
        {
          "internalType": "uint256",
          "name": "price",
          "type": "uint256"
        }
      ],
      "name": "createMarketItem",
      "outputs": [],
      "stateMutability": "payable",
      "type": "function"
    },
    {
      "inputs": [
        {
          "internalType": "address",
          "name": "nftContract",
          "type": "address"
        },
        {
          "internalType": "uint256",
          "name": "itemId",
          "type": "uint256"
        }
      ],
      "name": "createMarketSale",
      "outputs": [],
      "stateMutability": "payable",
      "type": "function"
    },
    {
      "inputs": [],
      "name": "fetchMyListedNFTs",
      "outputs": [
        {
          "components": [
            {
              "internalType": "uint256",
              "name": "itemId",
              "type": "uint256"
            },
            {
              "internalType": "address",
              "name": "nftContract",
              "type": "address"
            },
            {
              "internalType": "uint256",
              "name": "tokenId",
              "type": "uint256"
            },
            {
              "internalType": "address payable",
              "name": "seller",
              "type": "address"
            },
            {
              "internalType": "address payable",
              "name": "owner",
              "type": "address"
            },
            {
              "internalType": "uint256",
              "name": "price",
              "type": "uint256"
            },
            {
              "internalType": "bool",
              "name": "sold",
              "type": "bool"
            }
          ],
          "internalType": "struct NFTMarket.MarketItem[]",
          "name": "",
          "type": "tuple[]"
        }
      ],
      "stateMutability": "view",
      "type": "function"
    },
    {
      "inputs": [],
      "name": "fetchMyPurchasedNFTs",
      "outputs": [
        {
          "components": [
            {
              "internalType": "uint256",
              "name": "itemId",
              "type": "uint256"
            },
            {
              "internalType": "address",
              "name": "nftContract",
              "type": "address"
            },
            {
              "internalType": "uint256",
              "name": "tokenId",
              "type": "uint256"
            },
            {
              "internalType": "address payable",
              "name": "seller",
              "type": "address"
            },
            {
              "internalType": "address payable",
              "name": "owner",
              "type": "address"
            },
            {
              "internalType": "uint256",
              "name": "price",
              "type": "uint256"
            },
            {
              "internalType": "bool",
              "name": "sold",
              "type": "bool"
            }
          ],
          "internalType": "struct NFTMarket.MarketItem[]",
          "name": "",
          "type": "tuple[]"
        }
      ],
      "stateMutability": "view",
      "type": "function"
    },
    {
      "inputs": [],
      "name": "fetchUnsoldMarketItems",
      "outputs": [
        {
          "components": [
            {
              "internalType": "uint256",
              "name": "itemId",
              "type": "uint256"
            },
            {
              "internalType": "address",
              "name": "nftContract",
              "type": "address"
            },
            {
              "internalType": "uint256",
              "name": "tokenId",
              "type": "uint256"
            },
            {
              "internalType": "address payable",
              "name": "seller",
              "type": "address"
            },
            {
              "internalType": "address payable",
              "name": "owner",
              "type": "address"
            },
            {
              "internalType": "uint256",
              "name": "price",
              "type": "uint256"
            },
            {
              "internalType": "bool",
              "name": "sold",
              "type": "bool"
            }
          ],
          "internalType": "struct NFTMarket.MarketItem[]",
          "name": "",
          "type": "tuple[]"
        }
      ],
      "stateMutability": "view",
      "type": "function"
    },
    {
      "inputs": [],
      "name": "getListingPrice",
      "outputs": [
        {
          "internalType": "uint256",
          "name": "",
          "type": "uint256"
        }
      ],
      "stateMutability": "view",
      "type": "function"
    }
  ],
  "bytecode": "0x60806040526658d15e1762800060045534801561001b57600080fd5b50600160008190555033600360006101000a81548173ffffffffffffffffffffffffffffffffffffffff021916908373ffffffffffffffffffffffffffffffffffffffff1602179055506119d8806100746000396000f3fe6080604052600436106100555760003560e01c80630e2cb9441461005a57806312e85585146100855780633bec7b84146100b057806358eb2df5146100db5780637628ff55146100f7578063c23b139e14610122575b600080fd5b34801561006657600080fd5b5061006f61013e565b60405161007c91906115eb565b60405180910390f35b34801561009157600080fd5b5061009a6104ec565b6040516100a7919061168d565b60405180910390f35b3480156100bc57600080fd5b506100c56104f6565b6040516100d291906115eb565b60405180910390f35b6100f560048036038101906100f09190611318565b6108a4565b005b34801561010357600080fd5b5061010c610c29565b60405161011991906115eb565b60405180910390f35b61013c600480360381019061013791906112dc565b610f54565b005b6060600061014c600161120d565b905060008060005b838110156101f4573373ffffffffffffffffffffffffffffffffffffffff166005600060018461018491906116f2565b815260200190815260200160002060030160009054906101000a900473ffffffffffffffffffffffffffffffffffffffff1673ffffffffffffffffffffffffffffffffffffffff1614156101e15782806101dd9061180c565b9350505b80806101ec9061180c565b915050610154565b5060008267ffffffffffffffff811115610237577f4e487b7100000000000000000000000000000000000000000000000000000000600052604160045260246000fd5b60405190808252806020026020018201604052801561027057816020015b61025d611231565b8152602001906001900390816102555790505b50905060005b848110156104e1573373ffffffffffffffffffffffffffffffffffffffff16600560006001846102a691906116f2565b815260200190815260200160002060030160009054906101000a900473ffffffffffffffffffffffffffffffffffffffff1673ffffffffffffffffffffffffffffffffffffffff1614156104ce5760006005600060018461030791906116f2565b81526020019081526020016000206000015490506000600560008381526020019081526020016000209050806040518060e0016040529081600082015481526020016001820160009054906101000a900473ffffffffffffffffffffffffffffffffffffffff1673ffffffffffffffffffffffffffffffffffffffff1673ffffffffffffffffffffffffffffffffffffffff168152602001600282015481526020016003820160009054906101000a900473ffffffffffffffffffffffffffffffffffffffff1673ffffffffffffffffffffffffffffffffffffffff1673ffffffffffffffffffffffffffffffffffffffff1681526020016004820160009054906101000a900473ffffffffffffffffffffffffffffffffffffffff1673ffffffffffffffffffffffffffffffffffffffff1673ffffffffffffffffffffffffffffffffffffffff168152602001600582015481526020016006820160009054906101000a900460ff1615151515815250508486815181106104b2577f4e487b7100000000000000000000000000000000000000000000000000000000600052603260045260246000fd5b602002602001018190525084806104c89061180c565b95505050505b80806104d99061180c565b915050610276565b508094505050505090565b6000600454905090565b60606000610504600161120d565b905060008060005b838110156105ac573373ffffffffffffffffffffffffffffffffffffffff166005600060018461053c91906116f2565b815260200190815260200160002060040160009054906101000a900473ffffffffffffffffffffffffffffffffffffffff1673ffffffffffffffffffffffffffffffffffffffff1614156105995782806105959061180c565b9350505b80806105a49061180c565b91505061050c565b5060008267ffffffffffffffff8111156105ef577f4e487b7100000000000000000000000000000000000000000000000000000000600052604160045260246000fd5b60405190808252806020026020018201604052801561062857816020015b610615611231565b81526020019060019003908161060d5790505b50905060005b84811015610899573373ffffffffffffffffffffffffffffffffffffffff166005600060018461065e91906116f2565b815260200190815260200160002060040160009054906101000a900473ffffffffffffffffffffffffffffffffffffffff1673ffffffffffffffffffffffffffffffffffffffff161415610886576000600560006001846106bf91906116f2565b81526020019081526020016000206000015490506000600560008381526020019081526020016000209050806040518060e0016040529081600082015481526020016001820160009054906101000a900473ffffffffffffffffffffffffffffffffffffffff1673ffffffffffffffffffffffffffffffffffffffff1673ffffffffffffffffffffffffffffffffffffffff168152602001600282015481526020016003820160009054906101000a900473ffffffffffffffffffffffffffffffffffffffff1673ffffffffffffffffffffffffffffffffffffffff1673ffffffffffffffffffffffffffffffffffffffff1681526020016004820160009054906101000a900473ffffffffffffffffffffffffffffffffffffffff1673ffffffffffffffffffffffffffffffffffffffff1673ffffffffffffffffffffffffffffffffffffffff168152602001600582015481526020016006820160009054906101000a900460ff16151515158152505084868151811061086a577f4e487b7100000000000000000000000000000000000000000000000000000000600052603260045260246000fd5b602002602001018190525084806108809061180c565b95505050505b80806108919061180c565b91505061062e565b508094505050505090565b600260005414156108ea576040517f08c379a00000000000000000000000000000000000000000000000000000000081526004016108e19061164d565b60405180910390fd5b600260008190555060008111610935576040517f08c379a000000000000000000000000000000000000000000000000000000000815260040161092c9061166d565b60405180910390fd5b6004543414610979576040517f08c379a00000000000000000000000000000000000000000000000000000000081526004016109709061162d565b60405180910390fd5b610983600161121b565b600061098f600161120d565b90506040518060e001604052808281526020018573ffffffffffffffffffffffffffffffffffffffff1681526020018481526020013373ffffffffffffffffffffffffffffffffffffffff168152602001600073ffffffffffffffffffffffffffffffffffffffff16815260200183815260200160001515815250600560008381526020019081526020016000206000820151816000015560208201518160010160006101000a81548173ffffffffffffffffffffffffffffffffffffffff021916908373ffffffffffffffffffffffffffffffffffffffff1602179055506040820151816002015560608201518160030160006101000a81548173ffffffffffffffffffffffffffffffffffffffff021916908373ffffffffffffffffffffffffffffffffffffffff16021790555060808201518160040160006101000a81548173ffffffffffffffffffffffffffffffffffffffff021916908373ffffffffffffffffffffffffffffffffffffffff16021790555060a0820151816005015560c08201518160060160006101000a81548160ff0219169083151502179055509050508373ffffffffffffffffffffffffffffffffffffffff166323b872dd3330866040518463ffffffff1660e01b8152600401610b70939291906115b4565b600060405180830381600087803b158015610b8a57600080fd5b505af1158015610b9e573d6000803e3d6000fd5b50505050828473ffffffffffffffffffffffffffffffffffffffff16827f045dfa01dcba2b36aba1d3dc4a874f4b0c5d2fbeb8d2c4b34a7d88c8d8f929d133600360009054906101000a900473ffffffffffffffffffffffffffffffffffffffff16876000604051610c13949392919061156f565b60405180910390a4506001600081905550505050565b60606000610c37600161120d565b90506000610c45600261120d565b610c4f600161120d565b610c599190611748565b90506000808267ffffffffffffffff811115610c9e577f4e487b7100000000000000000000000000000000000000000000000000000000600052604160045260246000fd5b604051908082528060200260200182016040528015610cd757816020015b610cc4611231565b815260200190600190039081610cbc5790505b50905060005b84811015610f4957600073ffffffffffffffffffffffffffffffffffffffff1660056000600184610d0e91906116f2565b815260200190815260200160002060040160009054906101000a900473ffffffffffffffffffffffffffffffffffffffff1673ffffffffffffffffffffffffffffffffffffffff161415610f3657600060056000600184610d6f91906116f2565b81526020019081526020016000206000015490506000600560008381526020019081526020016000209050806040518060e0016040529081600082015481526020016001820160009054906101000a900473ffffffffffffffffffffffffffffffffffffffff1673ffffffffffffffffffffffffffffffffffffffff1673ffffffffffffffffffffffffffffffffffffffff168152602001600282015481526020016003820160009054906101000a900473ffffffffffffffffffffffffffffffffffffffff1673ffffffffffffffffffffffffffffffffffffffff1673ffffffffffffffffffffffffffffffffffffffff1681526020016004820160009054906101000a900473ffffffffffffffffffffffffffffffffffffffff1673ffffffffffffffffffffffffffffffffffffffff1673ffffffffffffffffffffffffffffffffffffffff168152602001600582015481526020016006820160009054906101000a900460ff161515151581525050848681518110610f1a577f4e487b7100000000000000000000000000000000000000000000000000000000600052603260045260246000fd5b60200260200101819052508480610f309061180c565b95505050505b8080610f419061180c565b915050610cdd565b508094505050505090565b60026000541415610f9a576040517f08c379a0000000000000000000000000000000000000000000000000000000008152600401610f919061164d565b60405180910390fd5b600260008190555060006005600083815260200190815260200160002060050154905060006005600084815260200190815260200160002060020154905081341461101a576040517f08c379a00000000000000000000000000000000000000000000000000000000081526004016110119061160d565b60405180910390fd5b6005600084815260200190815260200160002060030160009054906101000a900473ffffffffffffffffffffffffffffffffffffffff1673ffffffffffffffffffffffffffffffffffffffff166108fc349081150290604051600060405180830381858888f19350505050158015611096573d6000803e3d6000fd5b508373ffffffffffffffffffffffffffffffffffffffff166323b872dd3033846040518463ffffffff1660e01b81526004016110d4939291906115b4565b600060405180830381600087803b1580156110ee57600080fd5b505af1158015611102573d6000803e3d6000fd5b50505050336005600085815260200190815260200160002060040160006101000a81548173ffffffffffffffffffffffffffffffffffffffff021916908373ffffffffffffffffffffffffffffffffffffffff16021790555060016005600085815260200190815260200160002060060160006101000a81548160ff021916908315150217905550611194600261121b565b600360009054906101000a900473ffffffffffffffffffffffffffffffffffffffff1673ffffffffffffffffffffffffffffffffffffffff166108fc6004549081150290604051600060405180830381858888f193505050501580156111fe573d6000803e3d6000fd5b50505060016000819055505050565b600081600001549050919050565b6001816000016000828254019250508190555050565b6040518060e0016040528060008152602001600073ffffffffffffffffffffffffffffffffffffffff16815260200160008152602001600073ffffffffffffffffffffffffffffffffffffffff168152602001600073ffffffffffffffffffffffffffffffffffffffff168152602001600081526020016000151581525090565b6000813590506112c181611974565b92915050565b6000813590506112d68161198b565b92915050565b600080604083850312156112ef57600080fd5b60006112fd858286016112b2565b925050602061130e858286016112c7565b9150509250929050565b60008060006060848603121561132d57600080fd5b600061133b868287016112b2565b935050602061134c868287016112c7565b925050604061135d868287016112c7565b9150509250925092565b600061137383836114c3565b60e08301905092915050565b611388816117d6565b82525050565b6113978161178e565b82525050565b6113a68161177c565b82525050565b6113b58161177c565b82525050565b60006113c6826116b8565b6113d081856116d0565b93506113db836116a8565b8060005b8381101561140c5781516113f38882611367565b97506113fe836116c3565b9250506001810190506113df565b5085935050505092915050565b611422816117a0565b82525050565b611431816117a0565b82525050565b60006114446040836116e1565b915061144f82611884565b604082019050919050565b60006114676024836116e1565b9150611472826118d3565b604082019050919050565b600061148a601f836116e1565b915061149582611922565b602082019050919050565b60006114ad601c836116e1565b91506114b88261194b565b602082019050919050565b60e0820160008201516114d96000850182611551565b5060208201516114ec602085018261139d565b5060408201516114ff6040850182611551565b506060820151611512606085018261138e565b506080820151611525608085018261138e565b5060a082015161153860a0850182611551565b5060c082015161154b60c0850182611419565b50505050565b61155a816117cc565b82525050565b611569816117cc565b82525050565b600060808201905061158460008301876113ac565b611591602083018661137f565b61159e6040830185611560565b6115ab6060830184611428565b95945050505050565b60006060820190506115c960008301866113ac565b6115d660208301856113ac565b6115e36040830184611560565b949350505050565b6000602082019050818103600083015261160581846113bb565b905092915050565b6000602082019050818103600083015261162681611437565b9050919050565b600060208201905081810360008301526116468161145a565b9050919050565b600060208201905081810360008301526116668161147d565b9050919050565b60006020820190508181036000830152611686816114a0565b9050919050565b60006020820190506116a26000830184611560565b92915050565b6000819050602082019050919050565b600081519050919050565b6000602082019050919050565b600082825260208201905092915050565b600082825260208201905092915050565b60006116fd826117cc565b9150611708836117cc565b9250827fffffffffffffffffffffffffffffffffffffffffffffffffffffffffffffffff0382111561173d5761173c611855565b5b828201905092915050565b6000611753826117cc565b915061175e836117cc565b92508282101561177157611770611855565b5b828203905092915050565b6000611787826117ac565b9050919050565b6000611799826117ac565b9050919050565b60008115159050919050565b600073ffffffffffffffffffffffffffffffffffffffff82169050919050565b6000819050919050565b60006117e1826117e8565b9050919050565b60006117f3826117fa565b9050919050565b6000611805826117ac565b9050919050565b6000611817826117cc565b91507fffffffffffffffffffffffffffffffffffffffffffffffffffffffffffffffff82141561184a57611849611855565b5b600182019050919050565b7f4e487b7100000000000000000000000000000000000000000000000000000000600052601160045260246000fd5b7f506c65617365207375626d6974207468652061736b696e67207072696365206960008201527f6e206f7264657220746f20636f6d706c65746520746865207075726368617365602082015250565b7f5072696365206d75737420626520657175616c20746f206c697374696e67207060008201527f7269636500000000000000000000000000000000000000000000000000000000602082015250565b7f5265656e7472616e637947756172643a207265656e7472616e742063616c6c00600082015250565b7f5072696365206d757374206265206174206c6561737420312077656900000000600082015250565b61197d8161177c565b811461198857600080fd5b50565b611994816117cc565b811461199f57600080fd5b5056fea2646970667358221220f2695b86298559b7a9074e0b59eb853bb608452a49d27e4caaf921b03cbdf72564736f6c63430008040033",
  "linkReferences": {},
  "deployedLinkReferences": {}
}